S01E0000486169726F626F323031385F636F6E74726F6C6C65722E73726563D4
S11300000C94C8000C94F0000C94F0000C94F000D4
S11300100C94F0000C94F0000C94F0000C94F0009C
S11300200C94F0000C94F0000C94F0000C94F0008C
S11300300C94F0000C94F0000C94F0000C94F0007C
S11300400C9463060C94F0000C9445050C9477050D
S11300500C94F0000C94F0000C94F0000C94F0005C
S11300600C94F0000C94F000CF086808D3086B08D7
S11300706E087108750878087B087E088108840872
S113008087088A088D08910894089708D708A50856
S1130090A808CD08AB08CD08AF08B208B608CD084B
S11300A0CD08B908BD08C008C408C708CD08CA08E7
S11300B00A000900100000002000000040000000B9
S11300C080000000010000000800000002000000A1
S11300D00400000000010000000200000004000011
S11300E00008000000100000002000000040000094
S11300F00080000000000100000008000000100063
S11301000001020408090A0C0D0E0F000000000093
S11301100000000000FF27100032FF27100032FF0C
S113012027100032FF2710003200000000000000FA
S113013000000000000000000000000000000800B3
S11301400201000003040700000000000000000199
S11301500204081020408001020408102001020457
S11301600810200404040404040404020202020229
S11301700203030303030300000000250028002BEF
S11301800000000000240027002A00001604A70530
S113019011241FBECFEFD8E0DEBFCDBF14E0A0E036
S11301A0B1E0EEEFF4E302C005900D92A634B1077E
S11301B0D9F726E0A6E4B4E001C01D92A633B20745
S11301C0E1F710E0C8ECD0E004C02197FE010E94E2
S11301D04F19C63CD107C9F70E94D5050C947D1A66
S11301E00C9400009FB7F89420912A068091280669
S11301F0213019F48DBB9FBF08958FBF08952091BE
S11302002A06222399F04FB7F89420912A06213028
S113021059F42DB3209328063DB320912906209547
S113022023232DBB4FBF02C0409328068CBD9DBD28
S11302300895AF92BF92CF92DF92EF92FF920F9305
S11302401F93CF93DF93CDB7DEB760970FB6F894C3
S1130250DEBF0FBECDBF6B017C018A0180E1E6E009
S1130260F1E0DE01119601900D928A95E1F7CA0141
S113027001960E94E4055C01F7FE0FC0F094E0943F
S1130280D094C094C11CD11CE11CF11C0150110973
S1130290FC01E00FF11F8DE28083F501E00FF11FF7
S11302A09F010150110917FD18C0D701C6018F70B5
S11302B09927AA27BB27A1E0B0E0AC0FBD1FA80F68
S11302C0B91F8C91D9018E939D0184E0F694E79433
S11302D0D794C7948A95D1F7E4CF1082B50182E808
S11302E095E00E944B06C50160960FB6F894DEBFF8
S11302F00FBECDBFDF91CF911F910F91FF90EF9073
S1130300DF90CF90BF90AF900C94E6058F929F92B0
S1130310AF92CF92EF920F93CF93DF93EC014C0106
S113032084EB880E911CA12CC12CE12C00E020E070
S113033040E0B401CE010E948F0B68E0CE018655E7
S11303409F4F0E947C0AC4010E947510FE01E55D66
S1130350FE4FCD5CDE4F10861192EC17FD07D9F7E6
S1130360DF91CF910F91EF90CF90AF909F908F90AE
S11303700895FF920F931F93CF93DF938C01FC0199
S1130380ED5CFE4FEC01C55DDE4F888180833196C4
S1130390D801A45DBE4F8C918083319611968C91C7
S11303A08083319611968C91808360E0C8010E940D
S11303B00F0C91E1F92E6F2D0E9421198F709881F5
S11303C0907F892B888361E0C8010E940F0C6F2DF8
S11303D00E9421198295807F98819F70892B888340
S11303E062E0C8010E940F0C6F2D0E9421198F70CA
S11303F09981907F892B898363E0C8010E940F0C47
S11304006F2D0E9421198295807F99819F70892B7D
S113041089836AE0C8010E94F50B9A8180FB90F9F8
S11304209A8368E0C8010E94F50B9A8180FB91F9D8
S11304309A8366E0C8010E94F50B9A8180FB92F9C9
S11304409A836BE0C8010E94F50B9A8180FB93F9B3
S11304509A8369E0C8010E94F50B9A8180FB94F9A4
S11304609A8367E0C8010E94F50B9A8180FB95F995
S11304709A836DE0C8010E94F50B9B8180FB90F983
S11304809B836FE0C8010E94F50B9B8180FB93F96D
S11304909B836EE0C8010E94F50B9B8180FB92F95F
S11304A09B836CE0C8010E94F50B9B8180FB91F952
S11304B09B8364E0C8010E94F50B9A8180FB97F945
S11304C09A8365E0C8010E94F50B9A8180FB96F936
S11304D09A8363E0C8010E94F50B9B8180FB94F929
S11304E09B8361E0C8010E94F50B9B8180FB96F918
S11304F09B8360E0C8010E94F50B9B8180FB95F90A
S11305009B8362E0C8010E94F50B9B8180FB97F9F5
S11305109B83DF91CF911F910F91FF900895AF922C
S1130520BF92CF92EF92FF920F931F93CF93DF93DB
S11305305C01EC01C55DDE4FCC24C3947E0108E070
S113054020E040E050E0BA0186559F4F0E94100B16
S11305508501015D1E4FCE01FC013085019620818D
S1130560321701F1699170E080E090E042E050E0E0
S11305700E94190162EB70E082E895E00E94270670
S1130580C017D10779F760EB70E082E895E0DF915E
S1130590CF911F910F91FF90EF90CF90BF90AF90AC
S11305A00C94270680179107B9F6DF91CF911F911C
S11305B00F91FF90EF90CF90BF90AF9008958BEF85
S11305C094E00E948F1787E494E00E94B90187E4C5
S11305D094E00C948F022A9A0895CF93C82F80E553
S11305E091E00E94FF002A98CEBD00000DB407FEE2
S11305F0FDCF8EB51EBC00000DB407FEFDCFCEB5F9
S11306000E94EB0280912A0681110E94F2008C2F35
S1130610CF910895CF93DF93C82FD62F80E591E033
S11306200E94FF002A98C260CEBD0DB407FEFDCF24
S11306308EB5DEBD0DB407FEFDCF8EB50E94EB0274
S113064080912A06882321F0DF91CF910C94F20047
S1130650DF91CF91089588EF0E94ED02807C803471
S1130660A1F018F4882301F10895803819F0803C32
S1130670B9F0089588ED0E94ED0281FD0BC069EC8C
S113068088ED0E940A0382E00CC088ED0E94ED020E
S113069081FDF5CF6BEC88ED0E940A0383E001C075
S11306A081E080934604089561ED88ED0E940A0379
S11306B01092460408950F931F93CF93DF938C01F8
S11306C0229A0E94EB020E94230B229A0E94EB02C0
S11306D0219868E188E80E940A0360E288E70E94A2
S11306E00A0360E088E70E940A03C0E0D0E088E6DD
S11306F00E94ED02219680FD06C0CF3F8FEFD80700
S1130700B1F78FEF1DC061EC88ED0E940A0360E62B
S113071080ED0E940A0364E088EE0E940A0388EEDA
S11307200E94ED0282FFFBCFC8010E942B0360E20E
S113073088EC0E940A0361E080E80E940A0380E0DA
S1130740DF91CF911F910F910895CF93DF93EC0127
S113075026E040E052EC61E070E082E895E00E941F
S1130760E00466E171E082E895E00E9451066DE4E0
S113077071E082E895E00E945106CE018C549F4FAF
S11307800E945B038F3F91F464E771E082E895E097
S11307900E94510668E971E082E895E00E945106E2
S11307A064E670E080E090E00E94DE0665EC71E0B3
S11307B082E895E00E9451066DEE71E082E895E0D2
S11307C00E945106C655DF4F41E060E1CE010E9410
S11307D0840A882399F06AE072E082E895E00E9436
S11307E051066FE272E082E895E00E94510664E6E9
S11307F070E080E090E00E94DE06E6CF62E572E001
S113080082E895E00E9451066FE772E082E895E085
S11308100E94510664EA72E082E895E0DF91CF918C
S11308200C94510687E494E00C94A50387E494E0C7
S11308300C948601FC01918D228D892F90E0805CBF
S11308409F4F821B91098F7399270895FC01918D05
S1130850828D981731F0828DE80FF11D858D90E01F
S113086008958FEF9FEF0895FC01918D828D981765
S113087061F0828DDF01A80FB11D5D968C91928D80
S11308809F5F9F73928F90E008958FEF9FEF08957D
S11308908DE995E0892B49F080E090E0892B29F0DF
S11308A00E949D0581110C9400000895FC01848D23
S11308B0DF01A80FB11DA35ABF4F2C91848D90E086
S11308C001968F739927848FA689B7892C93A08961
S11308D0B1898C9180648C93938D848D981306C018
S11308E00288F389E02D80818F7D80830895EF92C3
S11308F0FF920F931F93CF93DF93EC0181E0888FD6
S11309009B8D8C8D981305C0E889F989808185FDBC
S113091024C0F62E0B8D10E00F5F1F4F0F731127AD
S1130920E02E8C8DE8120CC00FB607FCFACFE889D4
S1130930F989808185FFF5CFCE010E945604F1CF5D
S11309408B8DFE01E80FF11DE35AFF4FF0820B8FF0
S1130950EA89FB898081806207C0EE89FF89608310
S1130960E889F98980818064808381E090E0DF9167
S1130970CF911F910F91FF90EF900895CF93DF9344
S1130980EC01888D8823C9F0EA89FB89808185FD83
S113099005C0A889B9898C9186FD0FC00FB607FCE4
S11309A0F5CF808185FFF2CFA889B9898C9185FF25
S11309B0EDCFCE010E945604E7CFDF91CF91089589
S11309C0CF92DF92EF92FF921F93CF93DF93EC01CC
S11309D06A017B01122FE889F98982E0808341153D
S11309E0514E61057105B1F060E079E08DE390E06E
S11309F0A70196010E942D19DA01C9010197A109E5
S1130A00B109B695A795979587959C01211580E125
S1130A103807A8F0E889F989108260E874E88EE163
S1130A2090E0A70196010E942D19DA01C9010197EE
S1130A30A109B109B695A795979587959C01EC8571
S1130A40FD853083EE85FF852083188EEC89FD8932
S1130A501083EA89FB89808180618083EA89FB892C
S1130A60808188608083EA89FB89808180688083B3
S1130A70EA89FB8980818F7D8083DF91CF911F91EB
S1130A80FF90EF90DF90CF9008951F920F920FB6D2
S1130A900F9211242F938F939F93EF93FF93E091E1
S1130AA09205F09193058081E0919805F091990564
S1130AB082FD12C0908180919B058F5F8F7320917E
S1130AC09C05821751F0E0919B05F0E0EE57FA4F38
S1130AD0958F80939B0501C08081FF91EF919F9139
S1130AE08F912F910F900FBE0F901F9018951F920A
S1130AF00F920FB60F9211242F933F934F935F934E
S1130B006F937F938F939F93AF93BF93EF93FF93D1
S1130B1082E895E00E945604FF91EF91BF91AF9156
S1130B209F918F917F916F915F914F913F912F9101
S1130B300F900FBE0F901F90189582E895E00E94C9
S1130B401A0421E0892B09F420E0822F0895E2E8B9
S1130B50F5E01382128288EE93E0A0E0B0E0848393
S1130B609583A683B78382EB92E09183808385EC9F
S1130B7090E09587848784EC90E09787868780EC63
S1130B8090E0918B808B81EC90E0938B828B82EC54
S1130B9090E0958B848B86EC90E0978B868B118EFE
S1130BA0128E138E148E089508950E9425070E94B4
S1130BB0D4050E941204C8E4D4E00E94DF02209706
S1130BC0E1F30E944804F9CF0C9455190C94ED19E3
S1130BD0CF92DF92EF92FF920F931F93CF93DF9305
S1130BE06C017A018B01C0E0D0E0CE15DF0581F005
S1130BF0D8016D918D01D601ED91FC910190F081A8
S1130C00E02DC6010995892B11F02196EECF7E01C6
S1130C10C701DF91CF911F910F91FF90EF90DF906B
S1130C20CF9008956115710579F0FB0101900020C2
S1130C30E9F73197AF01461B570BDC01ED91FC91AD
S1130C400280F381E02D099480E090E00895EF9212
S1130C50FF920F931F93CF93DF938C017B01C0E02E
S1130C60D0E0F701EC0FFD1F6491662361F0D80119
S1130C70ED91FC910190F081E02DC8010995892B3B
S1130C8011F02196EECFCE01DF91CF911F910F91FC
S1130C90FF90EF9008950C9412066FEF72E00C949D
S1130CA012060F931F93CF93DF93EC010E94120659
S1130CB08C01CE010E944D06800F911FDF91CF91D0
S1130CC01F910F9108951F920F920FB60F92112446
S1130CD02F933F938F939F93AF93BF93809120065D
S1130CE090912106A0912206B091230630911F060F
S1130CF023E0230F2D3720F40196A11DB11D05C05B
S1130D0026E8230F0296A11DB11D20931F06809390
S1130D10200690932106A0932206B0932306809187
S1130D20240690912506A0912606B09127060196E7
S1130D30A11DB11D8093240690932506A093260639
S1130D40B0932706BF91AF919F918F913F912F91BF
S1130D500F900FBE0F901F9018952FB7F8946091C5
S1130D6020067091210680912206909123062FBFC0
S1130D7008953FB7F8948091240690912506A09198
S1130D802606B091270626B5A89B05C02F3F19F06B
S1130D900196A11DB11D3FBFBA2FA92F982F8827F7
S1130DA0820F911DA11DB11DBC01CD0142E0660F52
S1130DB0771F881F991F4A95D1F708958F929F92A4
S1130DC0AF92BF92CF92DF92EF92FF926B017C01C0
S1130DD00E94B9064B015C01C114D104E104F10481
S1130DE001F10E948C180E94B906DC01CB0188191C
S1130DF09909AA09BB09883E9340A105B10560F38E
S1130E0021E0C21AD108E108F10888EE880E83E0D7
S1130E10981EA11CB11CC114D104E104F10419F7FA
S1130E20DBCFFF90EF90DF90CF90BF90AF909F907B
S1130E308F9008958230910538F0880F991F880F9C
S1130E40991F05970197F1F70895789484B5826006
S1130E5084BD84B5816084BD85B5826085BD85B55A
S1130E60816085BDEEE6F0E0808181608083E1E809
S1130E70F0E0108280818260808380818160808341
S1130E80E0E8F0E0808181608083E1EBF0E0808144
S1130E9084608083E0EBF0E0808181608083EAE716
S1130EA0F0E080818460808380818260808380819F
S1130EB0816080838081806880831092C10008955E
S1130EC08EBD00000DB407FEFDCF8EB50895809150
S1130ED02A06882361F09FB7F89420912A0680910E
S1130EE02806213019F48DBB9FBF08958FBF089544
S1130EF0813431F0813531F0813331F080E008956F
S1130F0082E8089584E8089581E80895813431F0F1
S1130F10813531F0813331F080E0089582E4089521
S1130F2084E4089580E40895CF93DF93EC0180E591
S1130F3091E00E94FF0060E08E810E94F21880EC34
S1130F400E94600761E08E810E94F2180E94670788
S1130F506AE070E080E090E0DF91CF910C94DE06CF
S1130F601F93CF93DF93EC01162F80E591E00E944D
S1130F70FF0060E08E810E94F21883E00E94600707
S1130F80812F0E94600780E00E946007182F61E0B3
S1130F908E810E94F2180E946707812FDF91CF9102
S1130FA01F9108950F931F93CF93DF93EC01062FA6
S1130FB0142F80E591E00E94FF0060E08E810E9482
S1130FC0F21882E00E946007802F0E946007812F40
S1130FD00E94600761E08E810E94F218DF91CF9138
S1130FE01F910F910C946707FF920F931F93CF9358
S1130FF0DF93EC01F62E042F122F80E591E00E947E
S1131000FF0060E08E810E94F21885E00E94600774
S11310108F2D0E946007802F0E946007812F0E94FD
S1131020600761E08E810E94F218DF91CF911F91D9
S11310300F91FF900C9467071F93CF93DF93EC01FC
S113104080E591E00E94FF0060E08E810E94F2182A
S113105080EA0E94600780E00E946007182F61E028
S11310608E810E94F2180E946707812FDF91CF9131
S11310701F9108950F931F93CF938C01C62F262F92
S113108040EE6FE00E94F4076FE0C8010E94B007D1
S1131090982F907E81E09C1301C080E0CF911F9136
S11310A00F9108950F931F93CF93DF93413021F055
S11310B0423009F43FC071C0462F50E0FA01319725
S11310C0E231F10508F069C0EC5CFF4F0C944F1954
S11310D0C7E8DFEF6EC0C7E0DAEB67C0C5E8D1EF61
S11310E064C0C7E0DEEB49E065C0C7E8DFEF35C0A8
S11310F0C7E8DAEF32C0C7E8DFEF36C0C7E0DEEB9F
S113110033C0C7E0DDEA30C0C7E8DAEF2DC0C6E877
S1131110D0EF2AC0C7E8DAEF2EC0C5E8D1EF41E42A
S113112049C0C6E8D0EF2EC0C4E0D0EA2BC0C2E864
S1131130D0ED28C0462F50E0FA013197E231F10595
S113114060F5EA5BFF4F0C944F19C7E0DFEB2DC04D
S1131150C7E0DFEB02C0C4E0D4EA47E02BC0C7E03D
S1131160DFEB02C0C6E0D4EB43E024C0C7E0DFEB12
S113117002C0C6E0D4EB41E01DC0C5E0D1EBFBCF1B
S1131180C6E0D4EB40E016C0C5E0D1EBFBCFC2E033
S1131190D0E9F8CFC0E0D0E8F5CF81E01AC0C7E8C5
S11311A0DFEF4FE307C0C7E8DFEF4FE003C0C7E05E
S11311B0DFEB4FE18C016AE20E94D2074D2F69E216
S11311C0C8010E94D2074C2F68E2C8010E94D207CE
S11311D080E0DF91CF911F910F9108950F931F939A
S11311E0CF938C01C0E340E06C2FC8010E94D2076A
S11311F060E16C0F40E0C8010E94D20760E26C0F0E
S113120040E0C8010E94D207CF5FCE3361F740E0CF
S113121060E6C8010E94D20740E060E7C801CF91B0
S11312201F910F910C94D207FF920F931F93CF93AA
S1131230DF93EC01062FF42E0E94940760E8CE01A0
S11312400E943A08182F882319F06AEC72E036C01D
S113125064EE72E082E895E00E944B064F2D602F09
S1131260CE010E945208882319F062E073E026C080
S113127064E173E082E895E00E944B06CE010E948F
S1131280EE0843E06BE2CE010E94D20724E044E67C
S113129060E6CE010E94F40720E040E660E7CE015C
S11312A00E94F40760E0CE010E943A08182F8823B8
S11312B019F069E273E002C064E473E082E895E047
S11312C00E944B06812FDF91CF911F910F91FF90C8
S11312D00895F9018130B1F443835283AB01662749
S11312E07727942F9C71842F837028E0929F800D20
S11312F011248860818365E0569547956A95E1F7E6
S113130040830895CA0123E0969587952A95E1F7CD
S113131080834295440F407E418313821282089554
S11313201F93CF93DF93EC01162F80E591E00E9489
S1131330FF0060E08E810E94F218812F0E947807DE
S11313400E94600761E08E810E94F218DF91CF91C4
S11313501F910C9467074F925F926F927F928F92C6
S11313609F92AF92BF92CF92DF92EF92FF920F9330
S11313701F93CF93DF9300D000D0CDB7DEB74C01DD
S1131380D62E29013A01862F0E948607182FE110D4
S113139002C0F12C02C080E4F82E9E012F5F3F4F63
S11313A0B301A201802F0E94690980E591E00E94A7
S11313B0FF0060E0F40186810E94F218812F0E94F0
S11313C060078E010F5F1F4F3E01F5E06F0E711C29
S11313D0F80181918F010E94600706151705C1F776
S11313E08C2D8F290E946007750110E01C1549F0AF
S11313F0183039F0F70181917F010E9460071F5F67
S1131400F5CF61E0F40186810E94F2180E9467071B
S11314106D2DC4010E9490090F900F900F900F90B2
S1131420DF91CF911F910F91FF90EF90DF90CF90BC
S1131430BF90AF909F908F907F906F905F904F90F0
S11314400895EF92FF920F931F93CF938C017B012A
S11314500E941C088475F7011082843591F1F8010B
S1131460918543E050E0491B5109EBE1F4E090E041
S1131470292F30E02417350724F5933010F4C08168
S113148001C0CFEFC8233196C11119C0933028F49D
S1131490F901EF5DFB4F808101C080E58F5FF701AB
S11314A08083933028F4F901E25EFB4F408101C050
S11314B040E020E06CE2C8010E94F40703C09F5F93
S11314C0D7CFC2E08C2FCF911F910F91FF90EF9057
S11314D00895CF93DF93EC01662359F0862F6E8332
S11314E061E00E94B61861E08E81DF91CF910C9487
S11314F0F218DF91CF910895FC0111862CE236E0B9
S1131500308727830C94690A0F931F93CF93DF933B
S1131510EC01162F042F0E94230B402F612FCE01C4
S11315200E94140991E0811101C090E0892FDF919C
S1131530CF911F910F9108952F923F924F925F92F6
S11315406F927F928F929F92AF92BF92CF92DF92CF
S1131550EF92FF920F931F93CF93DF931F92CDB718
S1131560DEB74C012A013B01222E302EFA2CFC015D
S113157041835283638374832083058300E010E0F6
S1131580BE016F5F7F4FC4010E94210A0F5F1F4F8E
S1131590823041F40233110561F18AE090E00E9447
S11315A01A07EECF0233110521F15601CE2CE32C9C
S11315B0022DA30192016981C4010E94AB09FF209D
S11315C0B1F000E010E00F5F1F4F69816150C4016A
S11315D00E94B00783FF08C00233110561F08AE05E
S11315E090E00E941A07EFCF0233110521F080E04A
S11315F003C086E001C087E00F90DF91CF911F9177
S11316000F91FF90EF90DF90CF90BF90AF909F909D
S11316108F907F906F905F904F903F902F900895A0
S1131620AF92CF92DF92EF92FF920F93AC2C6701AF
S1131630E02E00E00E949C0A0F91FF90EF90DF9053
S1131640CF90AF900895CF93CFB7F89480912B06A5
S1131650811127C0EDE6F1E08491E9E5F1E0949190
S1131660E82FF0E0EE0FFF1FEF57FE4FA591B49166
S1131670EC91E92321F461E08AE00E94F21861E030
S11316808AE00E94B6188CB580618CBD8CB58064EC
S11316908CBD61E08DE00E94B61861E08BE00E9491
S11316A0B61880912B068F5F80932B06CFBFCF9106
S11316B0089580E00895089580E0089581E00895F4
S11316C0FC0187810895FC01838908956C34754079
S11316D061F4483692E0590751F04F3284E05807DC
S11316E031F081E0453D534019F080E0089581E0F8
S11316F00895CF93DF93EC011A821B821C828D81A3
S11317009E81DC01ED91FC910480F581E02D6F81D7
S113171009951F821B8A80E0DF91CF910895AF92D3
S1131720CF92EF920F93CF93DF93FC0188E294E082
S113173091838083768365831782138A108688E079
S113174081878CE382871386148684E085871686D6
S11317501786808B61157105B1F0DB01AA5ABF4F62
S113176080E090E0CD91DD91CD2B49F48B96880FEC
S1131770991FDB01A80FB91FED93FC9304C00196D8
S11317808031910579F741A720A707A3E6A2C5A256
S1131790A4A2DF91CF910F91EF90CF90AF900895D5
S11317A0FC0186A544A555A560E070E0682B408F38
S11317B0518F628F738F848D958DA68DB78D481749
S11317C059076A077B0781F080959095A095B0959D
S11317D084239523A623B72380A391A3A2A3B3A311
S11317E0448F558F668F778F089524E0629FF001B0
S11317F01124EC54FF4F4591559165917491FC016E
S1131800808D918DA28DB38D482359236A237B2328
S113181081E0452B462B472B09F480E00895860F81
S1131820911DFC0180A908958F929F92AF92BF925F
S1131830CF92EF920F93FC011F921F927F936F93AD
S11318405F934F934A01A12CB12C82E0C82EEE2461
S1131850E39409E021E240856781858196810E94B5
S1131860BC140F900F900F900F900F900F900F914A
S1131870EF90CF90BF90AF909F908F9008956F920C
S11318807F928F929F92AF92BF92CF92EF920F93DB
S1131890CF93DF93CDB7DEB728970FB6F894DEBFAA
S11318A00FBECDBF3C0181E089831A82DB0116960D
S11318B0CE0103962E91FC012193CF01A617B70701
S11318C0C9F71F921F92CE0101969F938F931F9287
S11318D088E08F9388E0882E912CA12CB12C93E082
S11318E0C92E25EFE22E09E021E2F301408567814C
S11318F0858196810E94BC140F900F900F900F90D9
S11319000F900F9028960FB6F894DEBF0FBECDBF90
S1131910DF91CF910F91EF90CF90BF90AF909F90B8
S11319208F907F906F9008958F929F92AF92BF9205
S1131930CF92EF920F93CF93DF9300D000D0CDB727
S1131940DEB7FC0182E489838CE08A831B821C82DB
S11319501F921F92CE0101969F938F931F9284E052
S11319608F9384E0882E912CA12CB12C93E0C92E66
S113197024EFE22E09E021E240856781858196818A
S11319800E94BC140F900F900F900F900F900F9027
S11319900F900F900F900F90DF91CF910F91EF90D8
S11319A0CF90BF90AF909F908F9008950F931F9307
S11319B0FC019A018B0143856781858196810E9490
S11319C09E131F910F910895CF92DF92EF920F9380
S11319D01F93CF93DF9300D0CDB7DEB7FC012389EB
S11319E0222309F453C06C018281811103C08481D4
S11319F0882341F180E490E09A838983E12C860175
S1131A00065D1F4F9E012F5F3F4FF601468567819C
S1131A10858196810E9456170E94AD06F6010489BD
S1131A20158926893789DC01CB01801B910BA20B18
S1131A30B30B85369105A105B10544F1C6010E9499
S1131A40D00B24C08381882309F10E94AD06F601DE
S1131A500489158926893789DC01CB01801B910B08
S1131A60A20BB30B813A9F40A105B1057CF0B601EE
S1131A7066597F4F47E050E0C6010E94D60C0E9491
S1131A80AD06F601648B758B868B978B80E00F9087
S1131A900F90DF91CF911F910F91EF90DF90CF9036
S1131AA00895FC01E459FF4F6083319640833196D9
S1131AB02083BC0166597F4F47E050E00C94D60C5C
S1131AC0CF92DF92EF92FF920F931F93E42F042F94
S1131AD0152F9B01772737FD7A95632F522F412FBE
S1131AE06901FF24D7FCF094EF2C2E2F6C2D1F914D
S1131AF00F91FF90EF90DF90CF900C94510D8F9247
S1131B009F92AF92BF92CF92EF920F931F93CF9376
S1131B10DF93CDB7DEB72B970FB6F894DEBF0FBEB9
S1131B20CDBFDC0185E0898380E1888781E08987F6
S1131B3082E08A8782E18B878B01CE0102969E0127
S1131B40285F3F4FF80141918F01FC014193CF0180
S1131B50E217F307B9F71F921F92CE0101969F93E4
S1131B608F931F928BE08F938BE0882E912CA12C66
S1131B70B12C93E0C92E25E0E22E09E021E218966B
S1131B804C91189717966C91179715968D919C9177
S1131B9016970E94BC140F900F900F900F900F9007
S1131BA00F902B960FB6F894DEBF0FBECDBFDF911A
S1131BB0CF911F910F91EF90CF90BF90AF909F90D6
S1131BC08F900895DC015196ED91FC9152973097D6
S1131BD009F00994FC012381222331F040E050E014
S1131BE06FEF70E00C94600DE1E0F1E0E491DC0152
S1131BF0AD58BF4FEF70EE0F2C91E22BEC93BC016C
S1131C0066597F4F40E350E00C94140C2F923F929E
S1131C104F925F926F927F928F929F92AF92BF92F8
S1131C20CF92DF92EF92FF920F931F93CF93DF93A4
S1131C30CDB7DEB762970FB6F894DEBF0FBECDBF47
S1131C40DC0117965C90511039C1222E342E462E99
S1131C507C01FC01C580D680D601ED91FC910190F8
S1131C60F081E02D60E0C60109955C01009719F44C
S1131C7046ED542E2BC1FC01608071806114710407
S1131C8009F41FC14701F8E08F0E911CDC01119685
S1131C909C928E9214962C928E010F5F1F4F22E11C
S1131CA030E040E060E0F701858196810E949C1558
S1131CB0182FD5016D927C928111F6C089859A8581
S1131CC08C34954009F0EFC06B847C84E8E66E1692
S1131CD0E2E07E0659F0FFE26F16F4E07F0631F091
S1131CE025ED621623E0720609F0DDC0D601ED9100
S1131CF0FC910280F381E02D232D40E0642DC60188
S1131D000995F7018783882309F4DEC098859187B4
S1131D10282F40E060E0858196810E94C315182F2A
S1131D20D601ED91FC91D50114961C92882359F0AB
S1131D300480F581E02DD70117966C91C6010995B1
S1131D40F7011782B9C00190F081E02DD7011796F1
S1131D506C91C6010995009709F48ACFFC0124828D
S1131D60940141E0D70117966C91179715968D91C0
S1131D709C9116970E94C210182F811195C032E0D1
S1131D80B32EF701B38690E4948784E0858701E05D
S1131D9006879787808B940143E0678185819681CC
S1131DA00E94C210182F81117FC068EC70E080E09F
S1131DB090E00E94DE0621E0D70118964C91189716
S1131DC017966C91179715968D919C9116970E9472
S1131DD03117182F811168C0F701E659FF4F6F01C1
S1131DE0F8E66F16F2E07F0641F02FE2621624E077
S1131DF0720619F5F701048303C0D70112960C93F8
S1131E00C7010E94940CEBE0F1E0D601C7018656AD
S1131E109F4F24912D9331968A179B07D1F78FE713
S1131E20D701D0968C93D097D1968C93D197D29694
S1131E308C93D297D3968C9304C0F7010383D60175
S1131E40BC92F70184A181110FC085A181110CC03E
S1131E5086A1811109C087A1811106C080A58111C5
S1131E6003C081A5882379F0D70113968C91B7011B
S1131E706C5D7F4F882321F0C7010E947F0D03C052
S1131E80C7010E943F0CC7010E94E20D81E0F701E7
S1131E90838B0E94AD06D70154966D937D938D93E9
S1131EA09C93579713C011EDD701ED91FC910480D9
S1131EB0F581E02DC7010995512E08C029ED522E58
S1131EC005C097ED592E02C084ED582E852D6296DB
S1131ED00FB6F894DEBF0FBECDBFDF91CF911F9137
S1131EE00F91FF90EF90DF90CF90BF90AF909F90B5
S1131EF08F907F906F905F904F903F902F900895B8
S1131F00CF93DF93FC01862F8078A9F4283008F062
S1131F104DC0442321F09581973009F447C0EF0167
S1131F20A1E0B0E09D85992341F011962596A0315A
S1131F30B105C1F73BC080E039C061111CC085E028
S1131F408A9FE0018B9FD00D1124CE0FDF1F442305
S1131F5031F081E4888785818F5F858302C081E0C9
S1131F60888725E02A9FC0012B9F900D1124E80F3C
S1131F70F91F80851BC06770660F660F660F4423C8
S1131F8041F0606485818F5F85838770687F682BEB
S1131F9003C02770687B622B25E02A9FC0012B9F1A
S1131FA0900D1124E80FF91F6087862FDF91CF91E0
S1131FB00895FC0120812EBD9B012150310941F07F
S1131FC051810DB407FEFDCF4EB55EBD4193F5CFF3
S1131FD061507109FC01E60FF71F0DB407FEFDCF38
S1131FE08EB580830895611102C006960895FC01A0
S1131FF021E03585631739F02F5F35962031C9F715
S113200080E090E00895069635E0239F800D911DB1
S113201011240895DF92EF92FF920F931F93CF93B1
S1132020DF93EC01E62EF12C85E0689FB0011124CA
S1132030FE01E60FF71F8085182F177086FF17C063
S113204001E085E0D82EFE01D09EE00DF11D1124A3
S1132050808586958695869587701817F9F00F5FA9
S1132060003189F78D81811302C011501D8385E0F1
S11320708E9DF0018F9DF00D1124EC0FFD1F108635
S113208081E0818712862296D783C683DF91CF9120
S11320901F910F91FF90EF90DF900895602FCE0174
S11320A00E940A10D0CFFC01613499F49C01255B95
S11320B03F4F61E0AC014E5F5F4F15866687178620
S11320C0548743873596E217F307B9F7FC01158265
S11320D0089521E03585631729F02F5F3596203167
S11320E0C9F70895622F0C940A10FC0180E494E06F
S11320F0918380831582108681E081871286CF01C7
S1132100029697838683128228E023832CE3248318
S1132110DF019F01255B3F4F41E01D961C921D97F7
S11321201E964C931E971F961C921F971C969C9369
S11321308E931B971596A217B30779F7EA58FF4FAA
S1132140108281E1809331060895CF93C42F0E94B9
S1132150F30F009789F0DC01ED91FC911197309712
S113216059F013969C9180E0891731F020812C1747
S113217031F033968F5FF8CF80E090E001C0CF015B
S1132180CF9108950F931F93CF93DF9321153105BA
S113219071F0E901042F162F0E94F30FFC01892B23
S11321A041F01283D183C083038380E003C088EDB0
S11321B001C086EDDF91CF911F910F9108952A9868
S11321C00895CF93C82F80E591E00E94FF000E94FC
S11321D0DF108C2F0E94600780E00E946007C82FE8
S11321E00E94EB020E9467078C2FCF9108950F93F2
S11321F01F93CF93DF9300D0CDB7DEB7182F062FF0
S113220080E591E00E94FF000E94DF1012601983B4
S11322100A8362E070E0CE0101960E94D90F0E9409
S1132220EB020E9467070F900F90DF91CF911F91EF
S11322300F9108958F929F92AF92BF92CF92DF92A7
S1132240EF92FF920F931F93CF93DF93EC01D62E5F
S1132250C42E59010E94F30F7C01009709F445C074
S1132260FC0180819181892B09F441C04C2D6D2D95
S1132270CE010E94A510F501918380830097C9F1D6
S1132280FC0182818695869590E08031910514F059
S11322908FE090E041E050E060E070E04A015B01D3
S11322A004C0880C991CAA1CBB1C8A95D2F7D501C2
S11322B0C4010197F801918380836D2D80EE0E9403
S11322C0F71088ED0E94E110F7019481992331F011
S11322D0CA58DF4F68816260682B02C0682F697F2B
S11322E088ED0E94F71080E005C086ED03C087EDFD
S11322F001C08BEDDF91CF911F910F91FF90EF9073
S1132300DF90CF90BF90AF909F908F9008958F9261
S11323109F92AF92BF92CF92DF92EF92FF920F9370
S11323201F93CF93DF93862E942E59010E94AD06FE
S11323306B017C0128E8C20E23E1D21EE11CF11CD2
S113234000E010E0D0E0C0E098280E94AD06DC0177
S1132350CB018C199D09AE09BF09B7FF2DC0692DAA
S113236080EF0E94F7100E94AD06DC01CB018C19AE
S11323709D09AE09BF09B7FF09C088EC0E94E110AE
S113238087FFF1CF60E888EC0E94F71088EF0E9485
S1132390E110C82FCF70C43019F0CE3051F00CC00A
S11323A00F5F1F4FA114B10481F20A151B0569F6D2
S11323B003C0DF5FD33049F68C2FDF91CF911F919B
S11323C00F91FF90EF90DF90CF90BF90AF909F90D0
S11323D08F9008959F92AF92BF92CF92DF92EF9227
S11323E0FF920F931F93CF93DF937C01D42F122F6F
S11323F0902E00E06C01C60ED11CC60ED11C86E5E1
S1132400C80ED11CA42EB12CABE2AA0EB11CAA0C8E
S1132410BB1CAE0CBF1CF60180819181DC01ED91E7
S1132420FC910280F381E02D292D412F6D2F099518
S1132430803EC9F4D1110BC061E088EE0E94F71010
S113244066E670E080E090E00E94DE0614C0F501CC
S113245080819181DC01ED91FC910284F385E02D72
S1132460612F099508C08D3021F4033008F03FC076
S113247014C081113FC0F60180819181DC01ED918E
S1132480FC910190F081E02D292D412F6D2F0995AC
S1132490C82F8D3051F4033050F464E670E080E0CE
S11324A090E00E94DE060F5FB6CF882311F1D111B0
S11324B00BC061E088EE0E94F71066E670E080E0F1
S11324C090E00E94DE0611C0ED2FF0E0BB96EE0F07
S11324D0FF1FEE0DFF1D80819181DC01ED91FC91C8
S11324E00284F385E02D612F09958C2F03C08DE0C4
S11324F001C080E0DF91CF911F910F91FF90EF9089
S1132500DF90CF90BF90AF909F9008950F931F934B
S1132510CF93DF93C82FD62F8A0180E591E00E94E4
S1132520FF000E94DF108C2F82600E946007CD2F75
S1132530D0E0209721F0BE01C8010E94D90FC00F3E
S1132540D11F0E94EB020E946707CE01DF91CF9159
S11325501F910F9108952F923F924F925F926F9225
S11325607F928F929F92AF92BF92CF92DF92EF921F
S1132570FF920F931F93CF93DF9300D000D01F924D
S1132580CDB7DEB77D836C834A016901FB01F1801D
S11325908FEF8F0D803408F074C00E94AD062B01BC
S11325A03C01F8E84F0EF3E15F1E611C711CEC81E5
S11325B0FD81828180FD02C060E401C060E888EE94
S11325C00E94F710312C8F2D90E09A838983C114D7
S11325D0D10409F448C0E980FA80CE14DF0408F479
S11325E07601EB82A8016E2D80E10E9486126E2D89
S11325F088E30E94F710EC81FD816081606280EFC6
S11326000E94F71088EC0E94E11087FFFBCF60E87E
S113261088EC0E94F71088EF0E94E1108F70382E2A
S1132620A12CB12C212C332009F46BC00E94AD06DF
S1132630DC01CB0184199509A609B709B7FF61C06C
S1132640F6E03F1601F12EE0321609F455C084E09D
S1132650381209C0FFEFAF1ABF0A8114910449F17F
S1132660A814B90431F588EF0E94E11085FB88278E
S113267080F9EC81FD81928180FB90F99283832D16
S113268045C08AED43C088EF0E94E11085FB88278E
S113269080F991E08927EC81FD81928180FB90F99A
S11326A0928390FD02C060E401C060E888EE0E945D
S11326B0F71060E088E30E94F710F801608180E180
S11326C00E94F7106B8188E30E94F710EC81FD8172
S11326D06081606280EF0E94F71088EC0E94E11034
S11326E087FFFBCF60E888EC0E94F71088EF0E9418
S11326F0E1108F70382E97CF239423E02212D9CF84
S1132700B2CFCE18DF080E0D1F1D61CF0F900F90B2
S11327100F900F900F90DF91CF911F910F91FF9029
S1132720EF90DF90CF90BF90AF909F908F907F906D
S11327306F905F904F903F902F900895AF92BF920B
S1132740CF92DF92EF92FF920F931F93CF93DF9379
S113275000D000D0CDB7DEB77C01690158011C82DE
S11327601B821A8219828E010F5F1F4F9E012D5FFB
S11327703F4F0E941A11811109C049815A816B810E
S11327807C8185019601C7010E94AB120F900F90C6
S11327900F900F90DF91CF911F910F91FF90EF90C9
S11327A0DF90CF90BF90AF9008952F923F924F92B9
S11327B05F926F927F928F929F92AF92BF92CF92CD
S11327C0DF92EF92FF920F931F93CF93DF93CDB7D6
S11327D0DEB729970FB6F894DEBF0FBECDBF1C013C
S11327E06B015B834A835901D9016D907C901197E9
S11327F0FB01F181F9831D921C92DB0112968C91ED
S113280081FD02C060E101C060E288EE0E94F71021
S11328108E2D90E0A0E0B0E08C839D83AE83BF83D7
S1132820462C2A813B81D6014C9160E0C1010E9473
S11328308711F82EB6E08B1315C088EF0E94E110C3
S11328408295817091E08927F601928180FB91F94C
S1132850928391FD02C060E101C060E288EE0E94B3
S1132860F710DFCF81116EC088EC0E94E11082FF67
S113287067C080E30E94E110582E90E06816790644
S113288008F4542CD5018D919C91F301E81BF90BAC
S1132890F987E887F7FF02C019861886852C912CE2
S11328A0288539858216930614F49986888680E5EE
S11328B091E00E94FF000E94DF1088E00E94600700
S11328C04885598560E070E0C8010E94761A8885C1
S11328D09985009721F0BC01C8010E94D90FA885F1
S11328E0B9850A0F1B1F0E94EB020E94670764E070
S11328F088EC0E94F710F50180819181880E991E61
S113290091828082F9815F1618F08614970470F022
S113291088EF0E94E11082958170D60112969C91F5
S1132920129780FB91F912969C930CC0EE2009F447
S113293078CF6C817D818E819F810E94DE0671CF6C
S113294080EFF82E8F2D29960FB6F894DEBF0FBEB8
S1132950CDBFDF91CF911F910F91FF90EF90DF904A
S1132960CF90BF90AF909F908F907F906F905F902B
S11329704F903F902F9008952F923F924F925F92E5
S11329806F927F928F929F92AF92BF92CF92DF927B
S1132990EF92FF920F931F93CF93DF93CDB7DEB7E0
S11329A061970FB6F894DEBF0FBECDBF3C01F42E85
S11329B0322E202EC98A4EA05FA0C8A4D9A4188A9A
S11329C01F861E861D868E01035F1F4F9E01215F99
S11329D03F4F0E941A11811196C039822A82EB82DC
S11329E089898C83BE82AD8298868F82AE014F5FC7
S11329F05F4F68E080E20E9486122D853E854F2D50
S1132A0060E1C3010E948711E82E811178C0932DE3
S1132A109078392EC114D10409F462C0EF85F88985
S1132A208281992309F44DC0826082835401222457
S1132A302394A114B10409F458C05C864B864D85D7
S1132A405E856F857889E12C86019E01255F3F4F65
S1132A50C3010E94D513E82EA6E08A130FC00F8588
S1132A60188988EF0E94E11085FB882780F9822568
S1132A70F801928180FB91F99283DBCF81113FC0F1
S1132A808AA59BA50097A1F0DC01ED91FC9111971B
S1132A900190F081E02DC4018A199B099A878987E6
S1132AA06B857C859E01275F3F4FA601CD0109956B
S1132AB08B859C85A81AB90A8415950508F0B9CFA9
S1132AC00FC0816082834D855E8586019201BF01BE
S1132AD0C3010E94AB12811116C02D853E8511C021
S1132AE02D853E85311005C00CC0E11008C02D8530
S1132AF03E8560EA4F2DC3010E94871104C08E2DCC
S1132B0002C060E8F7CF61960FB6F894DEBF0FBE3F
S1132B10CDBFDF91CF911F910F91FF90EF90DF9088
S1132B20CF90BF90AF909F908F907F906F905F9069
S1132B304F903F902F9008958F929F92AF92BF92A3
S1132B40CF92EF920F931F931F921F921F930F9395
S1132B503F932F934901A12CB12CCC24C394E12C95
S1132B6006E020E80E94BC140F900F900F900F9085
S1132B700F900F901F910F91EF90CF90BF90AF9057
S1132B809F908F9008958F929F92AF92BF92CF9211
S1132B90EF920F93CF931F921F921F921F921F9237
S1132BA01F92812C912CA12CB12CC12CE22E05E07A
S1132BB020E00E94BC14C82F6CE271E080E090E039
S1132BC00E94DE060F900F900F900F900F900F90C1
S1132BD08C2FCF910F91EF90CF90BF90AF909F909B
S1132BE08F9008950F931F93CF93DF938A3F3FEF06
S1132BF0930711F486ED2DC0DC011696ED91FC913E
S1132C001797EF2B09F1122F242FEC011A8740E0BC
S1132C100E94800F082F8823C9F0682FCE010E94DC
S1132C20F30F009739F3FC011483202F40E060E098
S1132C30CE010E94C315182F882351F0602FCE01B6
S1132C400E945310812F05C087ED03C084ED01C09D
S1132C5080E0DF91CF911F910F9108952F923F92C1
S1132C604F925F926F927F928F929F92AF92BF9298
S1132C70CF92DF92EF92FF920F931F93CF93DF9344
S1132C80CDB7DEB766970FB6F894DEBF0FBECDBFE3
S1132C901B8A38E03C8B3CE33D8B8A3F3FEF930734
S1132CA009F464C0522E342E462E7C01DC011696A3
S1132CB0CD90DC901797CE01439617969C938E93F4
S1132CC016971A962C938E010F5F1F4F22E130E066
S1132CD040E060E0C7010E949C15F701D782C682DC
S1132CE08111A6C089849A846B847C84FD81FE8BC7
S1132CF02E80670136E5C30ED11C560110E0D501C4
S1132D008D919C910097F1F1DC01ED91FC9100848F
S1132D10F185E02D0995811135C0F50180819181FE
S1132D20DC01ED91FC910088F189E02D622D09957B
S1132D30882341F1F50180819181DC01ED91FC91C1
S1132D400484F585E02DA301B4010995811110C017
S1132D50F50180819181DC01ED91FC910684F78578
S1132D60E02D6E890995811103C00CC086ED60C009
S1132D70052D232D442D612FC7010E94EA11813DA9
S1132D8009F056C01F5FB2E0AB0EB11C103109F060
S1132D90B6CF10E0F601808191810097E1F1DC016A
S1132DA0ED91FC910084F185E02D0995811133C0EA
S1132DB0F60180819181DC01ED91FC910088F1891B
S1132DC0E02D622D09958823D9F0F6018081918147
S1132DD0DC01ED91FC910484F585E02DA301B4019F
S1132DE00995811118C0F60180819181DC01ED9172
S1132DF0FC910684F785E02D6E89099581110BC03D
S1132E00052D232D442D612FC7010E94EA11982F0F
S1132E10977F913D69F41F5FE2E0CE0ED11C103123
S1132E2009F0B8CF252D432D642DC7010E94F2155A
S1132E3066960FB6F894DEBF0FBECDBFDF91CF917B
S1132E401F910F91FF90EF90DF90CF90BF90AF90C4
S1132E509F908F907F906F905F904F903F902F90B6
S1132E6008958F929F92AF92BF92CF92EF920F9359
S1132E701F921F921F921F921F921F92812C912CBE
S1132E80A12CB12CC12CE22E09E020E00E94BC143C
S1132E900F900F900F900F900F900F900F91EF9055
S1132EA0CF90BF90AF909F908F9008958F929F92F4
S1132EB0AF92BF92CF92DF92EF920F931F93CF9373
S1132EC0DF9300D000D0CDB7DEB76C0159014801C3
S1132ED01C821B821A8219828E010F5F1F4F9E0172
S1132EE02D5F3F4F0E941A11811109C049815A81F7
S1132EF06B817C8184019501C6010E94D5130F90DA
S1132F000F900F900F90DF91CF911F910F91EF9041
S1132F10DF90CF90BF90AF909F908F900895AF9225
S1132F20BF92CF92DF92EF92FF920F931F93CF93B2
S1132F308C0119990EC088EC0E94E11085FF05C030
S1132F40C8010E942B0360E201C060E088EC0E948B
S1132F50F71080914604813039F040F0823079F0E6
S1132F60833039F5C1E00CC083E106C0809131069D
S1132F70807F8031F1F081E1809331061AC0C0E096
S1132F8080913106807F8031A9F40E94AD06DC0176
S1132F90CB0188539F4FAF4FBF4F80932D06909323
S1132FA02E06A0932F06B093300680E2809331065C
S1132FB001C0C0E0780186E5E80EF11C6801A6E7CF
S1132FC0CA0ED11C5701F501819191915F010097BF
S1132FD039F0DC01ED91FC910680F781E02D099533
S1132FE0AC14BD0481F780913106803409F43FC0EC
S1132FF050F4803221F18033A1F1813109F082C093
S1133000F60110820AC0813509F458C0803809F4E9
S11330106AC0803509F076C039C0D7018D919D9181
S11330207D01009739F0DC01ED91FC910480F5817C
S1133030E02D0995EC14FD0481F782E161C00E9442
S1133040AD0600912D0610912E0620912F06309189
S11330503006DC01CB01801B910BA20BB30BB7FD37
S113306051C061E088EE0E94F71080E449C088EE08
S11330700E94E11080FD46C088ED0E94E110682F97
S1133080686088ED0E94F71080E53AC088EC0E94E1
S1133090E11086FF37C081E5809331060E94AD06BA
S11330A0DC01CB014496A11DB11D80932D069093A4
S11330B02E06A0932F06B093300624C00E94AD06BE
S11330C0C0902D06D0902E06E0902F06F09030068A
S11330D0DC01CB018C199D09AE09BF09B7FD12C0F3
S11330E080E8809331062C2F40E060E0C8010E9404
S11330F02E16882321F0823D29F080EA01C080E960
S113310080933106CF911F910F91FF90EF90DF9044
S1133110CF90BF90AF9008950895833081F028F444
S1133120813099F08230A1F008958730A9F0883079
S1133130B9F08430D1F4809180008F7D03C08091F8
S113314080008F7780938000089584B58F7702C0C4
S113315084B58F7D84BD08958091B0008F7703C0BE
S11331608091B0008F7D8093B0000895CF93DF935A
S113317090E0FC01E15BFE4F2491FC01ED59FE4F10
S11331808491882361F190E0880F991FFC01EF5727
S1133190FE4FC591D491FC01E958FE4FA591B4911D
S11331A0611109C09FB7F894888120958223888390
S11331B0EC912E230BC0623061F49FB7F8948881A0
S11331C0322F309583238883EC912E2B2C939FBF31
S11331D006C08FB7F894E8812E2B28838FBFDF9128
S11331E0CF9108951F93CF93DF93282F30E0F901F7
S11331F0E55CFE4F8491F901E15BFE4FD491F90146
S1133200ED59FE4FC491CC23C1F0162F81110E94B9
S11332108D18EC2FF0E0EE0FFF1FE958FE4FA5913B
S1133220B4919FB7F894111104C08C91D095D82310
S113323002C0EC91DE2BDC939FBFDF91CF911F91F5
S11332400895991B79E004C0991F961708F0961BFE
S1133250881F7A95C9F780950895A1E21A2EAA1BB2
S1133260BB1BFD010DC0AA1FBB1FEE1FFF1FA21732
S1133270B307E407F50720F0A21BB30BE40BF50B2F
S1133280661F771F881F991F1A9469F760957095B8
S1133290809590959B01AC01BD01CF010895EE0F7F
S11332A0FF1F0590F491E02D09940F931F93CF9382
S11332B0DF938230910510F482E090E0E0913406CF
S11332C0F091350620E030E0A0E0B0E0309719F14D
S11332D0408151810281138148175907C8F084172E
S11332E0950769F4109731F012960C931297139680
S11332F01C9327C0009334061093350622C0211571
S1133300310519F04217530718F49A01BD01EF0172
S1133310DF01F801DBCF21153105F9F0281B390B4A
S11333202430310580F48A819B816115710521F077
S1133330FB019383828304C0909335068093340603
S1133340FE01329644C0FE01E20FF31F8193919374
S113335022503109398328833AC0209132063091B2
S11333603306232B41F42091020130910301309361
S1133370330620933206209100013091010121157A
S1133380310541F42DB73EB7409104015091050138
S1133390241B350BE0913206F0913306E217F30754
S11333A0A0F42E1B3F0B2817390778F0AC014E5FB1
S11333B05F4F2417350748F04E0F5F1F50933306B5
S11333C0409332068193919302C0E0E0F0E0CF0194
S11333D0DF91CF911F910F910895CF93DF930097C1
S11333E009F481C0FC01329713821282A091340641
S11333F0B0913506109781F420813181820F931F9B
S113340020913206309133062817390751F5F0938D
S11334103306E093320667C0ED0120E030E0CE17BA
S1133420DF0740F44A815B819E0141155105F1F0AB
S1133430EA01F5CFD383C28340815181840F951F64
S1133440C817D90759F488819981840F951F02966A
S1133450918380838A819B819383828321153105A3
S113346029F4F0933506E09334063DC0E901FB836B
S1133470EA8349915991C40FD51FEC17FD0761F4F4
S113348080819181840F951F0296E9019983888335
S1133490828193819B838A83E0E0F0E012968D9190
S11334A09C911397009719F0FD01DC01F7CF8D91E2
S11334B09C9111979D012E5F3F4F820F931F209186
S11334C03206309133062817390769F4309729F406
S11334D0109235061092340602C013821282B09301
S11334E03306A0933206DF91CF910895DC0101C029
S11134F06D9341505040E0F70895F894FFCFDB
S11334FE0000360620003031323334353637383951
S113350E61626364656648656C6C6F2121204D723F
S113351E2E53757A75212041637469766174652022
S113352E7468697320636972637569742E205761B8
S113353E69742061207365636F6E642E00436F6E31
S113354E6669726D20636F6E6E656374696F6E204B
S113355E77697468204475616C73686F636B20338C
S113356E2E2E2E004661696C656420636F6E6E6547
S113357E6374696F6E2077697468204475616C7327
S113358E686F636B20332E00436F6E6669726D2015
S113359E636F6E6E656374696F6E207769746820ED
S11335AE4475616C73686F636B2033206167616966
S11335BE6E2E2E2E005375636365737366756C20C1
S11335CE636F6E6E656374696F6E207769746820BD
S11335DE4475616C73686F636B20332100496E69A7
S11335EE7469616C697A652043414E2042555320BB
S11335FE536869656C642E2E2E0043414E2042554D
S113360E5320536869656C6420696E697469616CD2
S113361E697A6174696F6E206661696C65640049CC
S113362E6E697469616C697A652043414E20425516
S113363E5320536869656C6420616761696E2E2E30
S113364E2E005375636365737366756C20696E69BA
S113365E7469616C697A6174696F6E206F66204358
S113366E414E2042555320536869656C64210054C1
S113367E6869732063697263756974206163746920
S113368E7661746564207375636365737366756CB4
S113369E6C792E00476F6F64206C75636B000000AD
S11336AE00007704E8051A0434042604BE046E618F
S11336BE6E00696E66006F766600456E74657220E4
S11336CE73657474696E67206D6F646520666169D5
S11336DE6C0D0A00456E7465722073657474696EA0
S11336EE67206D6F64652073756363657373200D56
S11336FE0A0073657420726174652066616C6C21B6
S113370E210D0A00736574207261746520737563EC
S113371E6365737321210D0A00456E746572204E24
S113372E6F726D616C204D6F6465204661696C210A
S113373E210D0A00456E746572204E6F726D616CB8
S113374E204D6F6465205375636365737321210D7A
S113375E0A00426567696E20746F20736574204D8C
S113376E61736B21210D0A00456E746572207365B9
S113377E7474696E67206D6F64652066616C6C0D80
S113378E0A00456E746572206E6F726D616C206DE9
S113379E6F64652066616C6C0D0A00736574204D50
S11337AE61736B207375636365737321210D0A0056
S11337BE426567696E20746F207365742046696C68
S11337CE74657221210D0A00456E746572206E6F48
S11337DE726D616C206D6F64652066616C6C0D0A90
S11337EE5365742066696C746572206661696C2118
S11337FE210D0A007365742046696C74657220731A
S113380E75636365737321210D0A00041040040867
S113381E1030405000000000060E590B790BE40CDA
S113382E600B5B0B660B5C0B5E0B630B0000000006
S109383EF30F800F53108C
S9030000FC
